{
  "contractName": "Mortgage",
  "abi": [
    {
      "inputs": [],
      "payable": false,
      "stateMutability": "nonpayable",
      "type": "constructor"
    },
    {
      "anonymous": false,
      "inputs": [
        {
          "indexed": false,
          "internalType": "address",
          "name": "_owner",
          "type": "address"
        }
      ],
      "name": "LineReleased",
      "type": "event"
    },
    {
      "anonymous": false,
      "inputs": [
        {
          "indexed": false,
          "internalType": "address",
          "name": "_owner",
          "type": "address"
        }
      ],
      "name": "LineTransferred",
      "type": "event"
    },
    {
      "anonymous": false,
      "inputs": [
        {
          "indexed": false,
          "internalType": "int256",
          "name": "_status",
          "type": "int256"
        }
      ],
      "name": "LoanStatus",
      "type": "event"
    },
    {
      "constant": true,
      "inputs": [
        {
          "internalType": "address",
          "name": "",
          "type": "address"
        }
      ],
      "name": "balances",
      "outputs": [
        {
          "internalType": "uint256",
          "name": "",
          "type": "uint256"
        }
      ],
      "payable": false,
      "stateMutability": "view",
      "type": "function"
    },
    {
      "constant": false,
      "inputs": [
        {
          "internalType": "address",
          "name": "receiver",
          "type": "address"
        },
        {
          "internalType": "uint256",
          "name": "amount",
          "type": "uint256"
        }
      ],
      "name": "deposite",
      "outputs": [
        {
          "internalType": "uint256",
          "name": "",
          "type": "uint256"
        }
      ],
      "payable": false,
      "stateMutability": "nonpayable",
      "type": "function"
    },
    {
      "constant": true,
      "inputs": [
        {
          "internalType": "address",
          "name": "receiver",
          "type": "address"
        }
      ],
      "name": "getBalance",
      "outputs": [
        {
          "internalType": "uint256",
          "name": "",
          "type": "uint256"
        }
      ],
      "payable": false,
      "stateMutability": "view",
      "type": "function"
    },
    {
      "constant": false,
      "inputs": [],
      "name": "checkMortgagePayoff",
      "outputs": [],
      "payable": false,
      "stateMutability": "nonpayable",
      "type": "function"
    },
    {
      "constant": false,
      "inputs": [
        {
          "internalType": "bytes32",
          "name": "_addressOfProperty",
          "type": "bytes32"
        },
        {
          "internalType": "uint32",
          "name": "_purchasePrice",
          "type": "uint32"
        },
        {
          "internalType": "uint32",
          "name": "_term",
          "type": "uint32"
        },
        {
          "internalType": "uint32",
          "name": "_interest",
          "type": "uint32"
        },
        {
          "internalType": "uint32",
          "name": "_loanAmount",
          "type": "uint32"
        },
        {
          "internalType": "uint32",
          "name": "_annualTax",
          "type": "uint32"
        },
        {
          "internalType": "uint32",
          "name": "_annualInsurance",
          "type": "uint32"
        },
        {
          "internalType": "uint32",
          "name": "_monthlyPaymentInstruction",
          "type": "uint32"
        },
        {
          "internalType": "uint32",
          "name": "_monthlyTax",
          "type": "uint32"
        },
        {
          "internalType": "uint32",
          "name": "_monthlyInsurance",
          "type": "uint32"
        },
        {
          "internalType": "address",
          "name": "_mortgageHolder",
          "type": "address"
        },
        {
          "internalType": "address",
          "name": "_insurer",
          "type": "address"
        },
        {
          "internalType": "address",
          "name": "_irs",
          "type": "address"
        }
      ],
      "name": "submitLoan",
      "outputs": [],
      "payable": false,
      "stateMutability": "nonpayable",
      "type": "function"
    },
    {
      "constant": true,
      "inputs": [],
      "name": "getLoanData",
      "outputs": [
        {
          "internalType": "bytes32",
          "name": "_addressOfProperty",
          "type": "bytes32"
        },
        {
          "internalType": "uint32",
          "name": "_purchasePrice",
          "type": "uint32"
        },
        {
          "internalType": "uint32",
          "name": "_term",
          "type": "uint32"
        },
        {
          "internalType": "uint32",
          "name": "_interest",
          "type": "uint32"
        },
        {
          "internalType": "uint32",
          "name": "_loanAmount",
          "type": "uint32"
        },
        {
          "internalType": "uint32",
          "name": "_annualTax",
          "type": "uint32"
        },
        {
          "internalType": "uint32",
          "name": "_annualInsurance",
          "type": "uint32"
        },
        {
          "internalType": "uint32",
          "name": "_monthlyPaymentInstruction",
          "type": "uint32"
        },
        {
          "internalType": "uint32",
          "name": "_monthlyTax",
          "type": "uint32"
        },
        {
          "internalType": "uint32",
          "name": "_monthlyInsurance",
          "type": "uint32"
        },
        {
          "internalType": "int256",
          "name": "_status",
          "type": "int256"
        }
      ],
      "payable": false,
      "stateMutability": "view",
      "type": "function"
    },
    {
      "constant": false,
      "inputs": [
        {
          "internalType": "int256",
          "name": "_status",
          "type": "int256"
        }
      ],
      "name": "approveRejectLoan",
      "outputs": [],
      "payable": false,
      "stateMutability": "nonpayable",
      "type": "function"
    }
  ],
  "bytecode": "0x608060405234801561001057600080fd5b50336000806101000a81548173ffffffffffffffffffffffffffffffffffffffff021916908373ffffffffffffffffffffffffffffffffffffffff1602179055506000600160070181905550620f4240601060003373ffffffffffffffffffffffffffffffffffffffff1673ffffffffffffffffffffffffffffffffffffffff16815260200190815260200160002081905550610d75806100b26000396000f3fe608060405234801561001057600080fd5b506004361061007d5760003560e01c8063938407081161005b5780639384070814610146578063a3f14e9614610174578063f14b7e0c14610244578063f8b2cb4f146103635761007d565b806327e235e3146100825780635cc8e54e146100da578063880cfc2f146100e4575b600080fd5b6100c46004803603602081101561009857600080fd5b81019080803573ffffffffffffffffffffffffffffffffffffffff1690602001909291905050506103bb565b6040518082815260200191505060405180910390f35b6100e26103d3565b005b610130600480360360408110156100fa57600080fd5b81019080803573ffffffffffffffffffffffffffffffffffffffff169060200190929190803590602001909291905050506106c2565b6040518082815260200191505060405180910390f35b6101726004803603602081101561015c57600080fd5b81019080803590602001909291905050506107f9565b005b61017c61097d565b604051808c81526020018b63ffffffff1663ffffffff1681526020018a63ffffffff1663ffffffff1681526020018963ffffffff1663ffffffff1681526020018863ffffffff1663ffffffff1681526020018763ffffffff1663ffffffff1681526020018663ffffffff1663ffffffff1681526020018563ffffffff1663ffffffff1681526020018463ffffffff1663ffffffff1681526020018363ffffffff1663ffffffff1681526020018281526020019b50505050505050505050505060405180910390f35b61036160048036036101a081101561025b57600080fd5b8101908080359060200190929190803563ffffffff169060200190929190803563ffffffff169060200190929190803563ffffffff169060200190929190803563ffffffff169060200190929190803563ffffffff169060200190929190803563ffffffff169060200190929190803563ffffffff169060200190929190803563ffffffff169060200190929190803563ffffffff169060200190929190803573ffffffffffffffffffffffffffffffffffffffff169060200190929190803573ffffffffffffffffffffffffffffffffffffffff169060200190929190803573ffffffffffffffffffffffffffffffffffffffff169060200190929190505050610a9f565b005b6103a56004803603602081101561037957600080fd5b81019080803573ffffffffffffffffffffffffffffffffffffffff169060200190929190505050610cf7565b6040518082815260200191505060405180910390f35b60106020528060005260406000206000915090505481565b600960000160009054906101000a900463ffffffff16600c600160030160000160009054906101000a900463ffffffff16020263ffffffff1660106000600160040160000160009054906101000a900473ffffffffffffffffffffffffffffffffffffffff1673ffffffffffffffffffffffffffffffffffffffff1673ffffffffffffffffffffffffffffffffffffffff1681526020019081526020016000205414801561051f5750600960000160009054906101000a900463ffffffff16600c600160030160000160049054906101000a900463ffffffff16020263ffffffff1660106000600160040160010160009054906101000a900473ffffffffffffffffffffffffffffffffffffffff1673ffffffffffffffffffffffffffffffffffffffff1673ffffffffffffffffffffffffffffffffffffffff16815260200190815260200160002054145b80156105c95750600960000160009054906101000a900463ffffffff16600c600160030160000160089054906101000a900463ffffffff16020263ffffffff1660106000600160040160020160009054906101000a900473ffffffffffffffffffffffffffffffffffffffff1673ffffffffffffffffffffffffffffffffffffffff1673ffffffffffffffffffffffffffffffffffffffff16815260200190815260200160002054145b156106c0576000809054906101000a900473ffffffffffffffffffffffffffffffffffffffff166001800160010160046101000a81548173ffffffffffffffffffffffffffffffffffffffff021916908373ffffffffffffffffffffffffffffffffffffffff1602179055507f398b2d3eb7eb75b995d290be1aff695b7f156bbf549503d3c31d91ae569aa2a46001800160010160049054906101000a900473ffffffffffffffffffffffffffffffffffffffff16604051808273ffffffffffffffffffffffffffffffffffffffff1673ffffffffffffffffffffffffffffffffffffffff16815260200191505060405180910390a15b565b600081601060003373ffffffffffffffffffffffffffffffffffffffff1673ffffffffffffffffffffffffffffffffffffffff168152602001908152602001600020541061070f57600080fd5b81601060003373ffffffffffffffffffffffffffffffffffffffff1673ffffffffffffffffffffffffffffffffffffffff1681526020019081526020016000206000828254039250508190555081601060008573ffffffffffffffffffffffffffffffffffffffff1673ffffffffffffffffffffffffffffffffffffffff168152602001908152602001600020600082825401925050819055506107b16103d3565b601060008473ffffffffffffffffffffffffffffffffffffffff1673ffffffffffffffffffffffffffffffffffffffff16815260200190815260200160002054905092915050565b600160040160000160009054906101000a900473ffffffffffffffffffffffffffffffffffffffff1673ffffffffffffffffffffffffffffffffffffffff163373ffffffffffffffffffffffffffffffffffffffff16141561085a57600080fd5b80600160070181905550600281141561093e57336001800160010160046101000a81548173ffffffffffffffffffffffffffffffffffffffff021916908373ffffffffffffffffffffffffffffffffffffffff1602179055507fe08b92c9d3b7f2d3e7ff3d2c47dd4d5931f4e646fbc28a7cec859bc708cce18a6001800160010160049054906101000a900473ffffffffffffffffffffffffffffffffffffffff16604051808273ffffffffffffffffffffffffffffffffffffffff1673ffffffffffffffffffffffffffffffffffffffff16815260200191505060405180910390a15b7f9199c2204168edea815389607e935fbabac15bd002ff8a7db78fe8056075afb16001600701546040518082815260200191505060405180910390a150565b600080600080600080600080600080600060018001600001549a506001800160010160009054906101000a900463ffffffff169950600160000160000160009054906101000a900463ffffffff169850600160000160000160049054906101000a900463ffffffff169750600160000160000160089054906101000a900463ffffffff1696506001600001600001600c9054906101000a900463ffffffff169550600160000160000160109054906101000a900463ffffffff169450600160030160000160009054906101000a900463ffffffff169350600160030160000160049054906101000a900463ffffffff169250600160030160000160089054906101000a900463ffffffff1691506001600701549050909192939495969798999a565b8c60018001600001819055508b6001800160010160006101000a81548163ffffffff021916908363ffffffff1602179055508a600160000160000160006101000a81548163ffffffff021916908363ffffffff16021790555089600160000160000160046101000a81548163ffffffff021916908363ffffffff16021790555088600160000160000160086101000a81548163ffffffff021916908363ffffffff160217905550876001600001600001600c6101000a81548163ffffffff021916908363ffffffff16021790555086600160000160000160106101000a81548163ffffffff021916908363ffffffff16021790555085600160030160000160006101000a81548163ffffffff021916908363ffffffff16021790555084600160030160000160046101000a81548163ffffffff021916908363ffffffff16021790555083600160030160000160086101000a81548163ffffffff021916908363ffffffff16021790555082600160040160000160006101000a81548173ffffffffffffffffffffffffffffffffffffffff021916908373ffffffffffffffffffffffffffffffffffffffff16021790555081600160040160010160006101000a81548173ffffffffffffffffffffffffffffffffffffffff021916908373ffffffffffffffffffffffffffffffffffffffff16021790555080600160040160020160006101000a81548173ffffffffffffffffffffffffffffffffffffffff021916908373ffffffffffffffffffffffffffffffffffffffff1602179055506001806007018190555050505050505050505050505050565b6000601060008373ffffffffffffffffffffffffffffffffffffffff1673ffffffffffffffffffffffffffffffffffffffff16815260200190815260200160002054905091905056fea265627a7a7231582069bb9e783e49c0a9fa2a0f51548c0956069a813f652b0b48b9591ad93e05a69864736f6c63430005100032",
  "source": "pragma solidity >=0.4.23 <=0.7.0;\n\ncontract Mortgage{\n    constructor() public{\n        loanApplicant = msg.sender;\n        loan.status = STATUS_INITIATED;\n        balances[msg.sender] = 1000000;\n    }\n\n    //Adding test\n\n    address loanApplicant;\n\n    event LineReleased(address _owner);\n    event LineTransferred(address _owner);\n    event LoanStatus(int _status);\n\n    int constant STATUS_INITIATED = 0;\n    int constant STATUS_SUBMITTED = 1;\n    int constant STATUS_APPROVED = 2;\n    int constant STATUS_REJECTED = 3;\n\n    struct Property{\n        bytes32 addressOfProperty;\n        uint32 purchasePrice;\n        address owner;\n    }\n\n    struct LoanTerms{\n        uint32 term;\n        uint32 interest;\n        uint32 loanAmount;\n        uint32 annualTax;\n        uint32 annualInsurance;\n    }\n\n    struct MonthlyPayment{\n        uint32 paymentInstallment;\n        uint32 tax;\n        uint32 insurance;\n    }\n\n    struct ActorAccounts{\n        address mortgageHolder;\n        address insurer;\n        address irs;\n    }\n\n    struct Loan{\n        LoanTerms loanTerms;\n        Property property;\n        MonthlyPayment monthlyPayment;\n        ActorAccounts actorAccounts;\n        int status;\n    }\n\n    Loan loan;\n    LoanTerms loanTerms;\n    Property property;\n    MonthlyPayment monthlyPayment;\n    ActorAccounts actorAccounts;\n\n    mapping(address => uint256) public balances;\n\n    modifier bankonly{\n        require(msg.sender != loan.actorAccounts.mortgageHolder);\n        _;\n    }\n\n    function deposite(address receiver,uint amount)\n    public returns(uint256){\n        require(balances[msg.sender] < amount);\n        balances[msg.sender] -= amount;\n        balances[receiver] += amount;\n        checkMortgagePayoff();\n        return balances[receiver];\n    }\n\n    function getBalance(address receiver) public view returns(uint256){\n        return balances[receiver];\n    }\n\n    function checkMortgagePayoff() public{\n        if(balances[loan.actorAccounts.mortgageHolder] == loan.monthlyPayment.paymentInstallment * 12 * loanTerms.term\n        && balances[loan.actorAccounts.insurer] == loan.monthlyPayment.tax*12*loanTerms.term\n        && balances[loan.actorAccounts.irs] == loan.monthlyPayment.insurance*12*loanTerms.term){\n            loan.property.owner = loanApplicant;\n            emit LineReleased(loan.property.owner);\n        }\n    }\n\n    function submitLoan(\n        bytes32 _addressOfProperty,\n        uint32 _purchasePrice,\n        uint32 _term,\n        uint32 _interest,\n        uint32 _loanAmount,\n        uint32 _annualTax,\n        uint32 _annualInsurance,\n        uint32 _monthlyPaymentInstruction,\n        uint32 _monthlyTax,\n        uint32 _monthlyInsurance,\n        address _mortgageHolder,\n        address _insurer,\n        address _irs\n    ) public{\n        loan.property.addressOfProperty = _addressOfProperty;\n        loan.property.purchasePrice = _purchasePrice;\n        loan.loanTerms.term = _term;\n        loan.loanTerms.interest = _interest;\n        loan.loanTerms.loanAmount = _loanAmount;\n        loan.loanTerms.annualTax = _annualTax;\n        loan.loanTerms.annualInsurance = _annualInsurance;\n        loan.monthlyPayment.paymentInstallment = _monthlyPaymentInstruction;\n        loan.monthlyPayment.tax = _monthlyTax;\n        loan.monthlyPayment.insurance = _monthlyInsurance;\n        loan.actorAccounts.mortgageHolder = _mortgageHolder;\n        loan.actorAccounts.insurer = _insurer;\n        loan.actorAccounts.irs = _irs;\n        loan.status = STATUS_SUBMITTED;\n    }\n\n    function getLoanData() public view returns(\n        bytes32 _addressOfProperty,\n        uint32 _purchasePrice,\n        uint32 _term,\n        uint32 _interest,\n        uint32 _loanAmount,\n        uint32 _annualTax,\n        uint32 _annualInsurance,\n        uint32 _monthlyPaymentInstruction,\n        uint32 _monthlyTax,\n        uint32 _monthlyInsurance,\n        int _status\n    )\n    {\n        _addressOfProperty = loan.property.addressOfProperty;\n        _purchasePrice = loan.property.purchasePrice;\n        _term = loan.loanTerms.term;\n        _interest = loan.loanTerms.interest;\n        _loanAmount = loan.loanTerms.loanAmount;\n        _annualTax = loan.loanTerms.annualTax;\n        _annualInsurance = loan.loanTerms.annualInsurance;\n        _monthlyPaymentInstruction = loan.monthlyPayment.paymentInstallment;\n        _monthlyTax = loan.monthlyPayment.tax;\n        _monthlyInsurance = loan.monthlyPayment.insurance;\n        _status = loan.status;\n    }\n\n    function approveRejectLoan(int _status) public bankonly{\n        loan.status = _status;\n\n        if(_status == STATUS_APPROVED)\n        {\n            loan.property.owner = msg.sender;\n            emit LineTransferred(loan.property.owner);\n        }\n\n        emit LoanStatus(loan.status);\n    }\n}",
  "sourcePath": "/Users/mihirsurti/Documents/GitHub/TestProjectElectionBC/contracts/Mortgage.sol",
  "compiler": {
    "name": "solc",
    "version": "0.5.16+commit.9c3226ce.Emscripten.clang"
  },
  "schemaVersion": "3.2.0",
  "updatedAt": "2020-08-25T16:39:03.227Z",
  "devdoc": {
    "methods": {}
  },
  "userdoc": {
    "methods": {}
  }
}